:1000000007308A00072F0000FF00030E8301A100C4
:100010000A08A0008A010408A2007708A300780853
:10002000A4007908A5007A08A60003170D08031399
:10003000A70003170F080313A80003170C080313E6
:10004000A90003170E080313AA00831383128C3030
:100050008400001C2D280C184E2822088400230838
:10006000F7002408F8002508F9002608FA002708F8
:1000700003178D000313280803178F0003132908A3
:1000800003178C0003132A0803178E00031320089C
:100090008A00210E8300FF0E7F0E09008A110A12CA
:1000A00038292022613BE52B61396510D434ED32CB
:1000B000721000002022613BE52B61396510D434B9
:1000C000ED32721000012010A0266F3265366F10DD
:1000D0003218321A20100000C3274E23C923552995
:1000E000412920244F2941100000201020102518FC
:1000F0003232BA123019641D251832322010201005
:100100000000453B6537F437A312301964102518F9
:10011000322CBA1230195800202965366F35A021CB
:10012000E136E23461326F1000002010A022D622A6
:100130004E2A4F10A31275102010200020102010FE
:10014000A0123019751D2518B23A20102010200079
:1001500020102010A0123019751D2518B23A201059
:1001600020102000201020102010201D2518B23A49
:1001700020102010200020102010A0123019751D12
:100180002518B23A20102010200020102010A012B4
:100190003019751D2010201020102000C837F230B3
:1001A000A0123019641D25183232BA1230196410A9
:1001B0002000C837F2302010201D25183232BA1224
:1001C000301964102000C837F230A0123019641DB5
:1001D0002010BA12301964102000C837F230A01273
:1001E0003019641D251832323A1020102000C63212
:1001F0006334611025183232AF123019E417251814
:1002000032322000C632633461102010AF12301930
:10021000E417251832322000C632633461102518E5
:1002200032322F10A017251832322000C632633424
:10023000611025183232AF123019E4172010200057
:1002400020246F39611025183232BA123019641D1A
:1002500025183232201000012023E531E830A012A9
:100260003019E41725183232AF123019641000002B
:100270002C142F0B3C293F29AF08031D4529AF0142
:1002800083160510831205104629AF030C108A113E
:100290000A122D284E3084008313000803195E29AA
:1002A0000130F800F701F70B5329F80B52294A30B7
:1002B000F700F70B59295C29800B502908000830FA
:1002C000F80000008711AB112B088316870000008F
:1002D0008312CF0D0712031C73292B162B088316CC
:1002E0008700772983122B122B08831687000000C2
:1002F0008312AB152B08831687008312871D7E2976
:10030000F80B612900008711AB112B0883168700B9
:10031000000083122B162B088316870000000000B4
:100320008312AB152B08831687008312871D96292D
:10033000F8010000071A78148711AB112B088316F7
:100340008700831207122B122B0883168700831253
:1003500008000830CC007708CD002B162B08831638
:10036000870000008312AB152B08831687008312C9
:10037000871DB829071A0314071E0310F80D000083
:10038000AB112B088316870083128711CC0BAD2984
:100390002B162B08831687000000831207124D08C6
:1003A0000319D7292B122B0883168700831200000C
:1003B000AB152B08831687008312871DDD290000EB
:1003C0008711AB112B0883168700000083120712D8
:1003D0002B122B0883168700831208002B162B087C
:1003E0008316870000008312AB152B088316870045
:1003F0000000831207122B122B08831687000000BF
:1004000083128711AB112B0883168700D03083121B
:10041000CF005F213F08CF005F212B162B088316EA
:10042000870000008312AB152B088316870000009D
:100430008312871D192A07122B122B088316870097
:10044000000083128711AB112B0883168700D1306F
:100450008312CF005F21F701A9217808C0002B1279
:100460002B088316870000008312AB152B08831618
:1004700087008312871D3A2A00003E2A00002B16AF
:100480002B0883168700000083124008F80008003C
:100490004E184C2A08124D2A081683160812831289
:1004A000CE18542A8812552A881683168812831269
:1004B0004E195C2A08135D2A081783160813831245
:1004C000CE19642A8813652A881783168813831225
:1004D000080083168811831288150230F700F70B85
:1004E0006F2A722A00008316881183128811053042
:1004F000CE004A210800BF0E3F08CE0048226922E4
:10050000BF0E3F08CE004822692208000230BF001B
:10051000FA30CE004A21BF0B882AF03083168600BD
:100520000030880083128601AB152B0883168700E4
:1005300083122B162B08831687008312BF01EE212E
:100540007808B6000C30F700F70BA42AA72A0000A1
:100550000130BF00EE217808B7000C30F700F70B30
:10056000AF2AB22A00000230BF00EE217808B8009E
:100570000C30F700F70BBA2ABD2A00000330BF0089
:10058000EE217808B9000C30F700F70BC52AC82A0D
:1005900000000430BF00EE217808BA000C30F700EC
:1005A000F70BD02AD32A00000530BF00EE217808CF
:1005B000BB000C30F700F70BDB2ADE2A0000063008
:1005C000BF00EE217808BC00B61F242B36087F3907
:1005D000BF00C0013F08C1002B162B0883168700FF
:1005E00000008312AB152B088316870000008312CE
:1005F00007122B122B088316870000008312871125
:10060000AB112B0883168700D0308312CF005F21F7
:100610004008CF005F214108CF005F212B122B083B
:100620008316870000008312AB152B088316870002
:100630008312871D192B00001D2B00002B162B0881
:100640008316870000008312CE0148226430CE005A
:100650004A21831608118312081183168810831209
:1006600088100330CE00482269220530CE004A218E
:1006700069224230F700F70B3B2B00006922423021
:10068000F700F70B412B00000230CE004822692210
:100690002830BF007B220C30BF007B220630BF0019
:1006A0007B220130BF007B22B530900083160C14F2
:1006B000C03083128B048A110A12312FC70E4708EB
:1006C0000838C800CE0048226922C70E4708CE006D
:1006D0004822692208008316081183120815CD0EDE
:1006E0004D08CE0048226922CD0E4D08CE0048228A
:1006F0006922831608118312081108000B08C7002D
:100700008B13831603178C170C1400000000831240
:100710000313C71B8B1703170C087F390319D22B40
:100720000313C70003170D080313C80003170F08AE
:100730000313C9004708CD006B23480803178D0039
:100740000313490803178F0003130B08CA008B1308
:10075000831603178C170C14000000008312031378
:10076000CA1B8B1703170C0D0E0D7F390319D22BE3
:100770000313C70003170D080313C80003170F085E
:100780000313C9004708CD006B23480803178D00E9
:100790000313490803178F008D0A03198F0A0313E7
:1007A0007E2B031703130800C7015E235A3003177B
:1007B0008D0000308F0003137E234030C7005E237E
:1007C000633003178D0000308F0003137E238A11DE
:1007D0000A12322F0B08C8008B13831603178C17CD
:1007E0000C140000000083120313C81B8B1703189E
:1007F000212C03170C087F390313C80003170D08B9
:100800000313C90003170F080313CA004808CD00DB
:100810006B23490803178D0003134A0803178F0041
:1008200003130B08CB008B13831603178C170C14C0
:100830000000000083120313CB1B8B17C70B212C66
:10084000402C03170C0D0E0D7F390313C80003173E
:100850000D080313C90003170F080313CA00480843
:10086000CD006B23490803178D0003134A080317B3
:100870008F008D0A03198F0A03100313C70BEA2B8D
:1008800008004E08F8014D020318492C4D08F700E6
:10089000552CF7010830CF00CD0DF70D4E0877022B
:1008A0000318F700F80DCF0B4C2C0800780844080B
:1008B000CD006430CE0041247708C4007808303081
:1008C000031D692CC51C702CC519702C451A2030CD
:1008D0006C2CC51145124514F8077808CD006B2320
:1008E0004408CD000A30CE0041247708C4007808BF
:1008F0003030031D812CC519852C451C852C451ACB
:100900002030F8077808CD006B233030C407440846
:10091000CD006B2308004130C100C20103103F0D20
:10092000C000400803178D0083168C130C1483122B
:100930000C080313AD0001304007C3004308031740
:100940008D0083168C130C1483120C080313AE0055
:10095000C7015E2301303F07C300953003178D00A8
:1009600000308F0003100B300313C700EA23430845
:10097000C4001B30C50056249B3003178D00003087
:100980008F00031404300313C700EA234030C7006C
:100990005E239E3003178D0000308F00031005305A
:1009A0000313C700EA232D08C4000130C5005624F4
:1009B0003A30CD006B232E08C4000130C500562408
:1009C000A53003178D0000308F000310053003138E
:1009D000C700EA230430C300FA30CE004A21C30B1B
:1009E000EC2C2C11861A012D861EF42C4130C100EE
:1009F0001E30CE004A21C20A4208023C0319C2013D
:100A0000C22D061B1C2D061F032D4130C1001E30B8
:100A1000CE004A212C15C208031D142DAD0A2D0845
:100A2000173C031CAD011B2D420B1B2DAE0A2E08DB
:100A30003B3C031CAE01C22D861B3B2D861F1E2D89
:100A40004130C1001E30CE004A212C15C208031DC2
:100A5000312DAD08031D2F2D1730AD00302DAD0306
:100A60003A2D420B3A2DAE08031D392D3B30AE0016
:100A70003A2DAE03C22D4030C7005E23C208031DCD
:100A8000812DAC18662DAC14A83003178D000030F2
:100A90008F00031005300313C700EA232D08C4009C
:100AA0000130C50056243A30CD006B232E08C40017
:100AB0000130C5005624AF3003178D0000308F0081
:100AC000031005300313C700EA23802DAC10B230A9
:100AD00003178D0000308F00031008300313C70088
:100AE000EA232E08C4000130C5005624B83003178D
:100AF0008D0000308F00031005300313C700EA2378
:100B0000C22D420BC22DAC18A82DAC14BB3003175C
:100B10008D0000308F00031005300313C700EA2357
:100B20002D08C4000130C50056243A30CD006B2397
:100B30002E08C4000130C5005624C23003178D00B2
:100B400000308F00031005300313C700EA23C22DC5
:100B5000AC10C53003178D0000308F000310053036
:100B60000313C700EA232D08C4000130C500562432
:100B7000C93003178D0000308F00031408300313B1
:100B8000C700EA23061EC92D4108C103013C031C0E
:100B9000F22C061A032E2C1D032E2C110B08F70025
:100BA0008B13400803178D0003132D0803178C00C7
:100BB00083168C130C1555308D00AA308D008C14C3
:100BC0008C18E02D0C117708831203138B0401306D
:100BD0004007C3000B08F7008B13430803178D0071
:100BE00003132E0803178C0083168C130C15553035
:100BF0008D00AA308D008C148C18FC2D0C117708F8
:100C0000831203138B048A110A12412F4C08CD0062
:100C10000310CD0C7830CD054D0CF700F70C3F30AC
:100C2000F70577084D07CE004C080F394E07F8003E
:100C300008002030481E3030C9004708F700C71FA1
:100C4000292EF709F70A7708C7002D30C900C81701
:100C500048144708CD006430CE0041247708C7000F
:100C600030307807CA004708CD000A30CE00412452
:100C700030307707CC0030307807CB004908F700D8
:100C800030304A020319482EC814C81B48155C2E80
:100C900048195C2E4908CA00C818532E30304B0240
:100CA0000319562E4814C81BC8145C2E031D481483
:100CB000031D5C2E4A08CB004819632EC818662E07
:100CC0004818692E6C2E4908CD006B234A08CD00C8
:100CD0006B234B08CD006B234C08CD006B23080021
:100CE0004E08CF00D0014F08093C03187C2E0A3073
:100CF000CF021030D0077F2E4F08D007802E732EE2
:100D00005008F8000800C7015E23513003178D001A
:100D100000308F0003137E238A110A12E22F403025
:100D2000C7005E23753003178D0000308F0003105D
:100D300004300313C700EA233208C7000130C8009B
:100D400019263A30CD006B233308C7000130C800A4
:100D500019263A30CD006B233408C7000130C80093
:100D600019267E3003178D0000308F0003100430E9
:100D70000313C700EA238A110A12E32FC0014008B7
:100D80000B3C031CFD2E0310400DBF003F08031752
:100D90008D0083168C130C1483120C080313AD0002
:100DA00001303F07C100410803178D0083168C13E3
:100DB0000C1483120C080313AE0032082D02031D1D
:100DC000FB2E33082E02031DFB2E2D083002031DBF
:100DD000ED2E2E0831020319042FAF08031DFB2E40
:100DE0002D08B0002E08B1001E30AF00831605108C
:100DF00083120514042FC00ABF2EAF08031D042F51
:100E000083160510831205108A110A12E42F0308B5
:100E10001F398300FF30AB002C14AC102C11AF0134
:100E20003C30B000B1000C30B200B301B401B501E8
:100E30004130BE0083161F149F141F159F110730E9
:100E40009C0083138312AD01AE01B601B701B80156
:100E5000B9011C30BA000230BB000730BC00BD0134
:100E6000862AD42B0C30BF00FA30CE004A21BF0BAB
:100E7000342F061A562FB501061A4E2F3508BF001B
:100E80008B2C0230BF00FA30CE004A21BF0B432F1B
:100E9000B50A35080C3C0319B5013C2F0430BF00DE
:100EA000FA30CE004A21BF0B502FE72F861A652F4C
:100EB000861E582F8A1500288A110430BF00FA3088
:100EC000CE004A21BF0B5F2FE72F2C1CE72F2C10E1
:100ED0002B162B088316870000008312AB152B08F6
:100EE000831687000000831207122B122B0883162B
:100EF0008700000083128711AB112B08831687002F
:100F0000D0308312CF005F211030F700F70B862F0F
:100F10000000CF015F211030F700F70B8D2F00008C
:100F20002B162B088316870000008312AB152B08A5
:100F30008316870000008312871D9C2F07122B1237
:100F40002B0883168700000083128711AB112B0832
:100F500083168700D1308312CF005F210130F70064
:100F6000A92178087F39C700CC0006267808B4008C
:100F70000130F700A92178087F39C700CC00062688
:100F80007808B300F701A92178083F39C700CC00E1
:100F900006267808B2002B122B0883168700000063
:100FA0008312AB152B08831687008312871DD62F5B
:100FB0000000DA2F00002B162B0883168700000094
:100FC0008312832E8F2EBE2EAF080319E72F392FE1
:020FD0006300BC
:10100000BF010C30C000C101C2010130C300C400E7
:10101000C5000B30C6002B162B0883168700000076
:101020008312AB152B08831687000000831207126A
:101030002B122B0883168700000083128711AB1137
:101040002B0883168700D0308312CF008A115F21CE
:101050008A151030F700F70B2B280000CF018A11FA
:101060005F218A151030F700F70B342800002B168B
:101070002B088316870000008312AB152B088316FC
:10108000870000008312871D432807122B122B08AC
:1010900083168700000083128711AB112B0883167B
:1010A0008700D1308312CF008A115F218A15013069
:1010B000F7008A11A9218A1578087F39C700CC006A
:1010C0008A1106268A157808C2000130F7008A11B5
:1010D000A9218A1578087F39C700CC008A11062615
:1010E0008A157808C100F7018A11A9218A157808A4
:1010F0003F39C700CC008A1106268A157808C0003F
:101100002B122B088316870000008312AB152B08C7
:10111000831687008312871D8B2800008F2800000C
:101120002B162B0883168700000083122B162B0822
:101130008316870000008312AB152B0883168700E7
:101140000000831207122B122B0883168700000061
:1011500083128711AB112B0883168700D0308312BE
:10116000CF008A115F218A151030F700F70BB628DF
:1011700000000330CF008A115F218A151030F7007C
:10118000F70BC02800002B162B08831687000000E1
:101190008312AB152B088316870000008312871D6E
:1011A000CF2807122B122B0883168700000083120A
:1011B0008711AB112B0883168700D1308312CF0023
:1011C0008A115F218A150130F7008A11A9218A1539
:1011D00078087F39C700CC008A1106268A1578085E
:1011E000C3000130F7008A11A9218A1578083F3918
:1011F000C700CC008A1106268A157808C400013081
:10120000F7008A11A9218A1578081F39C700CC0078
:101210008A1106268A157808C500F7018A11A921C6
:101220008A157808C700CC008A1106268A15780826
:10123000C6002B122B088316870000008312AB1503
:101240002B08831687008312871D24290000282974
:1012500000002B162B0883168700000083122C1128
:10126000C7018A115E238A156C3003178D00003088
:101270008F008A1103137E238A15861A5829861E29
:101280003F291E30CE008A114A218A151E30CE0019
:101290008A114A218A151E30CE008A114A218A15E8
:1012A0004130BE00BF0A3F08063C0319BF01D32BE3
:1012B000061BD5292C15061F5B291E30CE008A116E
:1012C0004A218A151E30CE008A114A218A151E3005
:1012D000CE008A114A218A154130BE00BF08031D85
:1012E0007729C00A4008173C031CC001D4293F0BD2
:1012F0007F29C10A41083B3C031CC101D4293F0896
:10130000023C031D8929C20A42083B3C031CC2015E
:10131000D4293F08033C031DBD29C40A44081D3CD1
:10132000031D9A294508023C031D9A2946080339E2
:10133000031DBA2944081E3C031DA2294508023C8E
:101340000319BA2944081F3C031DB6294508043C6B
:101350000319BA294508063C0319BA294508093C6E
:101360000319BA2945080B3C0319BA294408203C43
:10137000031DBC290130C400D4293F08043C031DCF
:10138000C929C50A45080D3C031DC8290130C500FF
:10139000D4293F08053C031DD429C60A46081E3C33
:1013A000031DD4291630C600D32B861B3E2A2C15CC
:1013B000861FD8291E30CE008A114A218A151E3078
:1013C000CE008A114A218A151E30CE008A114A2188
:1013D0008A154130BE00BF08031DF629C008031D51
:1013E000F4291730C000F529C0033D2A3F0B002A1D
:1013F000C108031DFE293B30C100FF29C1033D2A5E
:101400003F08023C031D0C2AC208031D0A2A3B3078
:10141000C2000B2AC2033D2A3F08033C031D352AA4
:10142000C4034508023C031D1F2A46080339031D57
:101430001C2A1D30C4001E2A1C30C400342A450852
:10144000043C03192F2A4508063C03192F2A450896
:10145000093C03192F2A45080B3C031D322A1E3074
:10146000C400342A1F30C4003D2A3F08043C031D39
:101470003D2AC50B3D2A0C30C500D32B4030C70098
:101480008A115E238A153F08023C031C112BAC18FD
:10149000802AAC14CE3003178D0000308F0003106B
:1014A00005300313C7008A11EA238A154008C700D4
:1014B0000130C8008A1119268A153A30CD008A11E8
:1014C0006B238A154108C7000130C8008A1119260C
:1014D0008A153A30CD008A116B238A154208C7005D
:1014E0000130C8008A1119268A152030CD008A11D2
:1014F0006B238A152030CD008A116B238A15102B9F
:10150000AC10BF08031DAE2AD93003178D00003080
:101510008F00031008300313C7008A11EA238A15CD
:101520004108C7000130C8008A1119268A153A30CF
:10153000CD008A116B238A154208C7000130C8000C
:101540008A1119268A152030CD008A116B238A153D
:101550002030CD008A116B238A15102B3F0BE12A16
:10156000E33003178D0000308F00031005300313A4
:10157000C7008A11EA238A154008C7000130C80055
:101580008A1119268A15E73003178D0000308F0065
:10159000031404300313C7008A11EA238A15420892
:1015A000C7000130C8008A1119268A152030CD00E5
:1015B0008A116B238A152030CD008A116B238A157E
:1015C000102B3F08023C031D102BED3003178D003C
:1015D00000308F00031005300313C7008A11EA237F
:1015E0008A154008C7000130C8008A1119268A15DB
:1015F0003A30CD008A116B238A154108C7000130AB
:10160000C8008A1119268A15F43003178D0000309E
:101610008F00031005300313C7008A11EA238A15CF
:10162000CE2BAC18452BAC14F73003178D000030CF
:101630008F00031006300313C7008A11EA238A15AE
:101640004408C7000130C8008A1119268A152F30B6
:10165000CD008A116B238A154508C7000130C800E8
:101660008A1119268A152F30CD008A116B238A150D
:101670004608C7000130C8008A1119268A15203093
:10168000CD008A116B238A15CE2BAC103F08033C8A
:10169000031D6F2B023003178D0001308F000310E4
:1016A00009300313C7008A11EA238A154508C700C9
:1016B0000130C8008A1119268A152F30CD008A11F1
:1016C0006B238A154608C7000130C8008A11192605
:1016D0008A152030CD008A116B238A15CE2B3F0846
:1016E000043C031D9F2B0C3003178D0001308F002D
:1016F000031006300313C7008A11EA238A15440831
:10170000C7000130C8008A1119268A151130031745
:101710008D0001308F00031004300313C7008A11BD
:10172000EA238A154608C7000130C8008A11192625
:101730008A152030CD008A116B238A15CE2B3F08E5
:10174000053C031DCE2B163003178D0001308F0092
:10175000031006300313C7008A11EA238A154408D0
:10176000C7000130C8008A1119268A152F30CD0014
:101770008A116B238A154508C7000130C8008A11F9
:1017800019268A151D3003178D0001308F000314B0
:1017900004300313C7008A11EA238A156430CE008F
:1017A0008A114A218A15061EDA2B3E08BE03013C27
:1017B000031C3D29061A082D061EDC2B2C1D082DA6
:1017C0002C114408C7004508C8004608C900430852
:1017D000CA004008CB004108CC004208CD00CD1320
:1017E0003F30CB052B162B08831687000000831291
:1017F000AB152B08831687000000831207122B12EB
:101800002B0883168700000083128711AB112B0869
:1018100083168700D0308312CF008A115F218A158A
:10182000CF018A115F218A154D08CE008A117026DA
:101830008A157808CE00CF008A115F218A151030F2
:10184000F700F70B212C00004C08CE008A117026FF
:101850008A157808CE00CF008A115F218A151030D2
:10186000F700F70B312C00004B08CE008A117026D0
:101870008A157808CE00CF008A115F218A151030B2
:10188000F700F70B412C00004A08CE008A117026A1
:101890008A157808CE00CF008A115F218A15103092
:1018A000F700F70B512C00004708CE008A11702674
:1018B0008A157808CE00CF008A115F218A15103072
:1018C000F700F70B612C00004808CE008A11702643
:1018D0008A157808CE00CF008A115F218A15103052
:1018E000F700F70B712C00004908CE008A11702612
:1018F0008A157808CE00CF008A115F218A158030C2
:10190000CF008A115F218A152B122B0883168700BE
:1019100000008312AB152B08831687008312871DE6
:101920008F2C0000932C00002B162B0883168700A9
:1019300000008312C7018A115E238A152030031725
:101940008D0001308F00031006300313C7008A1189
:10195000EA238A154008C7000130C8008A111926F9
:101960008A153A30CD008A116B238A154108C700C9
:101970000130C8008A1119268A153A30CD008A1123
:101980006B238A154208C7000130C8008A11192646
:101990008A152030CD008A116B238A152030CD00A6
:1019A0008A116B238A154030C7008A115E238A157D
:1019B0002C3003178D0001308F0003100730031304
:1019C000C7008A11EA238A154408C7000130C800FD
:1019D0008A1119268A152F30CD008A116B238A159A
:1019E0004508C7000130C8008A1119268A152F3012
:1019F000CD008A116B238A154608C7000130C80044
:101A00008A1119268A152030CD008A116B238A1578
:101A10000430C700FA30CE008A114A218A15C70B5C
:081A20000A2D8A110A125C2F45
:104200000000000000001E000100000001001E0070
:104210000200000002001E001100000011001E003C
:104220001200000012001E001300000013001E0008
:104230001400000014001E001500000015001E00F0
:104240001600000016001E001700000017001E00D8
:02400E00713F00
:00000001FF
;PIC16F877A
;CRC=0A05  CREATED="26-May.-24 21:42"
